:020000040000fa
:100000000200de021003000000000002100b0000de
:10001000000000021013000000000002101b00008e
:10002000000000021023000000000002102b00005e
:10003000000000021033000000000002103b00002e
:10004000000000021043000000000002104b0000fe
:10005000000000021053000000000002105b0000ce
:10006000000000021063000000000002106b00009e
:10007000000000021073000000000002107b00006e
:10008000000000021083000000000002108b00003e
:100090000000000208da1200f0b900030200d8e400
:1000a000900002784879098002f0a3d8fcd9fa9030
:1000b0000849aa82ab839000f6780779018015e49d
:1000c00093a3ac82ad838a828b83f0a3aa82ab8395
:1000d0008c828d83d8e9d9e712039c1208f975d078
:1000e0000075813f75188075931e5392fe0200962d
:1000f00079015392fe2200100008000060160808e3
:1001000008c6c313c618c613c618c613c618c61326
:10011000c6d5e0ea22e026f008a3e036f008a3e026
:1001200036f008a3e036f022e0f608a3e0f608a3d4
:10013000e0f608a3e0f622cac0e0e6f30908dafa1e
:10014000d0e0fa22700422600d18c6c333c608c678
:1001500033c6d5e0f41822e4735392fed083d082e4
:100160002518f8c518c39824fbcef208e520f2083c
:10017000e9c0e07908e709f208defad0e0f9eff229
:1001800008d0e0fed0e0f208eef208e473a818e22e
:10019000fe08e208f520e9c0e07908e208f709df87
:1001a000fae208ffd0e0f9e208c0e0e208c0e08827
:1001b000185392fe22e584f208e585f222e208f562
:1001c00084e2f5852274028000c9c0e0e518c39975
:1001d000f518c9120137d0e0f92275bc0075bc00d2
:1001e0005392fe22ecf8edf9e824fffce934fffd20
:1001f000e84960158a828b835392fee0f5bd8a82be
:100200008b83a3aa82ab8380db5392fe22e5bdf8e9
:100210007900fae9fbe4cafbe5bcf879004afae99f
:100220004bfb5392fe2274022408f874003400f948
:10023000e4e9f8f5d374022408f5d25392fe22a221
:10024000afe433f8c2af5392fe906270e0a2e74091
:10025000f5e9c333906272f0906270e0d2e0f09002
:100260006270e0a2e740f8e8fae8a2e092af5392a9
:10027000fe2274fa120159a2afe433f8c2afecfec9
:10028000edffe4effe900002f0ec900003f0900030
:10029000047462f09000057473f09000067400f02e
:1002a000e9900007f09000087412f0900009744281
:1002b000f0eafeebffe4effe906272f0ea9062710a
:1002c000f07e027f00e4effef5d575d40275d6010d
:1002d000906270e0d2e1f0906270e0a2e740f8e84e
:1002e000fee8a2e092af7f0102018d5392fe906280
:1002f00076e0547064307004740380027407f875fb
:10030000c680e59e648070fa9062707408f088c7b9
:1003100090ff0ae0f5f190ff0be0f5f390ff0ce0a1
:10032000f5f490ff0de0f5f590ff02e0f58690ff03
:1003300003e0f5c490ff04e0f5c590ff05e0f5c2c9
:1003400090ff06e0f5f890ff07e0f5fb90ff08e06e
:10035000f5fc90ff09e0f5faa2fe500ee5f1a2e1ee
:100360004008e5ff543f4440f5ff5392fe2274fae3
:100370001201597900ecfeedffee24fffcef34ff93
:10038000fdee4f60128a828b83e029f98a828b838b
:10039000a3aa82ab8380de7f0102018d7e0053928f
:1003a000fe900001e090001af07ea5e5c7f5097502
:1003b000c7007c007d707a007b9012036ee92efef0
:1003c0008509c77508037f01efc39508501ae5c773
:1003d000f5098fc77c007d807a007b8012036ee96f
:1003e0002efe8509c70f80e0ee7027e59d54186446
:1003f00010700890001ae0a2e0401790000174030a
:10040000f00592900849e0f582a3e0f58305921289
:1004100001571202eb9000017400f012022612063e
:100420003680fec008c0097401c0e0740759f8d0d6
:10043000e0b800028004c333d8fcf88908750900cd
:10044000e5085418fae5095400fbea600a24f8604c
:100450000b24f8600c800de842808008e842908010
:1004600003e842a0d009d0085392fe22c008c00978
:100470007401c0e0740759f8d0e0b800028004c3ea
:1004800033d8fcf8f4f88908750900e5085418fa1f
:10049000e5095400fbea600a24f8600b24f8600cbc
:1004a000800de852808008e852908003e852a0d086
:1004b00009d0085392fe22c008c0097401c0e0743c
:1004c0000759f8d0e0b800028004c333d8fcf8899b
:1004d00008750900e5085418fae5095400fbea60bc
:1004e0000a24f8600b24f8600c800de842fd8008b7
:1004f000e842fe8003e842ffd009d0085392fe2272
:1005000079035392fe906276e0a2e6500279075397
:1005100092fe22e9f85392fe900843e0700d88c1e4
:10052000e586a2e040fae5c1f9800988f9a2f84021
:10053000fce5f9f95392fe2274f7120159151815ca
:1005400018a8181201b575841b758500900844e041
:1005500060237e00eec3941040030205e07f00efad
:10056000c39480500d7900120513e90592f0a30f92
:1005700080ed0e80df9008457808120128740f780e
:10058000081200fce508f5c7900845780812012814
:10059000e5084400fae5094480fb7e00eec39410b0
:1005a000502e7f00efc3948050238a828b83e00516
:1005b00092f08a828b830592a3aa82ab8385848280
:1005c000858583a38582848583850f80d70e80cc23
:1005d00090084b78081201289008457808120115f8
:1005e000a8181201bd051805187f0402018d74fac0
:1005f000120159900844e06022900841e0f9120489
:100600006c7903120513e97900120513e9790012d8
:100610000513e97900120513e980167c007d807ec0
:10062000017f00900845ecf0a3edf0a3eef0a3effe
:10063000f07f0102018d74f512015915181518a8e3
:10064000181201b5750a00750b0075093012050006
:10065000e9f5c790ff28e0900841f090ff29e0906d
:100660000842f090ff27e0900843f090ff2ae0a2b4
:10067000e0e433900844f0900844e0604190084280
:10068000e0f912046c900842e0f91204b7900842b5
:10069000e0f91204237efee595ffe5956f6004e521
:1006a00095ff1eee70f4900841e0f91204239008c3
:1006b00041e0f91204b7900841e0f9120423120551
:1006c000ee1205381201da7cfe7d077a1d7b0012de
:1006d00001e412020d8a0c8b0dae0caf0d750c26c9
:1006e000750d00780c1201c57c1b7d007a1b7b0800
:1006f0001208fd05180518eef8eff9e4e9f890087e
:100700001ce068700bee54fff890081be068600373
:100710000208c31201da900844e0702e7401c0e0b0
:1007200074075509f8d0e0b800028004c333d8fc40
:10073000f4fa75f008e50984f87900743128f58237
:10074000740839f583e05af00509750800e508c317
:1007500094805071750c01750d00e50875f00884e2
:10076000e5f0780c12014475f008e50884f879008a
:10077000742128f582740839f583e0550c604290a5
:100780000844e0702e7401c0e074075509f8d0e009
:10079000b800028004c333d8fcf4fa75f008e50908
:1007a00084f87900743128f582740839f583e05aa9
:1007b000f005091205387c007d087a1b7b001201c8
:1007c000e405088088900844e06008900841e0f95a
:1007d00012042312020d8a0c8b0dae0caf0deef835
:1007e000e50da90de4e50da80d90081ee068700b5d
:1007f000ee54fff890081de06860030208c3750816
:1008000000e508c394805034750c01750d00e508af
:1008100075f00884e5f0780c12014475f008e508dd
:1008200084f87900743128f582740839f583e0552d
:100830000c6005a90812023f050880c51205ee12da
:100840000538750800e508c394805077750c01756c
:100850000d00e50875f00884e5f0780c1201447588
:10086000f008e50884f87900742128f582740839c5
:10087000f583e0550c603c12053875841b758500c6
:10088000750c00e50cc3941050357980ac84ad85af
:10089000aa0aab0b120272e50a2420f50ae50b3412
:1008a00000f50be5842480f584e5853400f58505a5
:1008b0000c80d0e50a2400f50ae50b3402f50b059f
:1008c000088082900844e06008900841e0f9120432
:1008d0002375c90880fe5392fe2274fa120159153d
:1008e000181518eafeebffa818eef208eff2aa18a6
:1008f000ab9379011208d680ee12009322c084c017
:10090000858c848d858a828b83a818e2fc08e2801e
:1009100012439201e00592f0a30592a3ec24ff1c80
:10092000ed34fffdec4d70e9d085d0845392fe226a
:10093000ffffffffffffffffffffffffffffffffc7
:10094000ffffffffffffffffffffffffffffffffb7
:10095000ffffffffffffffffffffffffffffffffa7
:10096000ffffffffffffffffffffffffffffffff97
:100f000012010002000000205824feff0000010230
:100f1000030109021b0001010480250904000000ef
:100f2000fe01020409210d03e84000010104030948
:100f300004120342006c00750065006700690067d9
:100f400000610016034c006f007700200045006e22
:100f50000065007200670079000a03310032003337
:100f6000003400080344004600550000ffffffff67
:100f7000ffffffffffffffffffffffffffffffff81
:100f8000ffffffffffffffffffffffffffffffff71
:100f9000ffffffffffffffffffffffffffffffff61
:100fa000ffffffffffffffffffffffffffffffff51
:100fb000ffffffffffffffffffffffffffffffff41
:100fc000ffffffffffffffffffffffffffffffff31
:100fd000ffffffffffffffffffffffffffffffff21
:100fe000ffffffffffffffffffffffffffffffff11
:100ff000ffffffffffffffffffffffffffffffff01
:101000000210f7023057ffffffffff023a8fffff8a
:10101000ffffff023b26ffffffffff023bdaffff60
:10102000ffffff022600ffffffffff0238beffffaa
:10103000ffffff023cc5ffffffffff023b7efffffc
:10104000ffffff023affffffffffffffffffffff72
:10105000ffffff02303cffffffffffffffffffff2f
:10106000ffffffffffffffffffffff0239c6ffff8c
:10107000ffffff023c4dffffffffff023a4bffff68
:10108000ffffff0230627582e475837f74001211e6
:1010900012121133b900030210e1e479347802b876
:1010a00000028004f709d8fce4900302789a7906dc
:1010b0008002f0a3d8fcd9fa90089baa82ab839057
:1010c0001139786379028015e493a3ac82ad838ae9
:1010d000828b83f0a3aa82ab838c828d83d8e9d9db
:1010e000e775824c7583f274021211127582d675ff
:1010f000837f740012111275d00075813f75310025
:10110000753202753303759f007593005392fe028a
:101110001091c09ff59fe473d09f225392fed0831d
:10112000d082c09fe493c0e0740193c0e074029346
:10113000f59f2279015392fe22030000020102036f
:1011400000000f00c3a88ee8b19dcf7f5eb98b9fd2
:1011500041efb055f401fa00960064004b003200f4
:101160001e001400d6be898e00010602121315144b
:1011700029417671ffc1fbe84c90728be7b351892e
:1011800063ab232302841872aa612f3b51a8e53771
:1011900049fbc9ca0c18532cfd45e300400000ff71
:1011a000fffffffaffffff00008000620000000564
:1011b000000600070000000100010000010001021c
:1011c000020300020000000000020201000240428f
:1011d0000f0019000000093d0000e4fffffffb3491
:1011e0009b5f8000008000100000000000000100f4
:1011f0000000ff00000000000805070000000000dc
:101200000201050000000000020200800100000051
:101210000108030000000000000d000000070000ae
:10122000010480000100008000000000070a0400a3
:10123000000000000709cf1ad51adb1ae11ae71ad5
:10124000ed1a571a491c2b1c031d971c9d1c80006e
:101250000405020000008000040606000000800073
:10126000040280000404800002000b0000008000e3
:1012700006000317bb13fb183314a91c4f1c891b52
:10128000f11c511a4e0601ffffff0000000080ff15
:10129000ffffff00000000c000000012111bb2bde4
:1012a0000212111bcabd0212111bf5bd0212111b45
:1012b00042be0212111b5bbe0212111b8dbe021236
:1012c000111bcbbe0212111bfdbe0212111b74bffb
:1012d0000212111b89bf0212111ba8bf0212111b9f
:1012e000cdbf0212111b24c00212111bbbc402127b
:1012f000111b6fc50212111b10f80212111b3af8d4
:101300000212111b7df80212111b45e30212111b80
:101310009ee30212111b06e40212111b1ee40212cc
:10132000111b48e40212111b62e40212111b96e425
:101330000212111bece40212111b27e50212111b11
:10134000d7e50212111bfbe50212111b83e6021204
:10135000111baee60212111bf0e60212111b15e77b
:101360000212111b29e70212111b3ee70212111b88
:10137000e6e70212111b7cde0212111b98de02123c
:10138000111bd2de0212111be0de0212111b11df53
:101390000212111b3edf0212111b47df0212111b4a
:1013a0008adf0212111b0de00212111b7ee00212f5
:1013b000111bcce00212111bfce00212111b51e1c7
:1013c0000212111b25e20212111b30e20212111b44
:1013d00063e20212111b9ce20212111beee20212e6
:1013e000111b2be30212111bb7fb0212111bd7fbbf
:1013f0000212111b00fc0212111b63fa0212111bd4
:1014000077fa0212111bcefa0212111b68fc0212ab
:10141000111b7ffc0212111be0f90212111b0dfac5
:101420000212111baf740012111b16750012111b52
:101430002d750012111b71750012111bb77500126a
:10144000111b11760012111b65770012111b8d788c
:101450000012111b2f790012111b53790012111b5e
:1014600095790012111b437a0012111b917a001218
:10147000111bee7a0012111b017b0012111b017c63
:101480000012111b217d0012111b977d0012111bf0
:1014900000800112111bab810112111b1d82011270
:1014a000111b70830112111be2830112111b1c849a
:1014b0000112111bea840112111b78850112111b04
:1014c0003b860112111b63870112111b5788011201
:1014d000111b98890112111b008a0112111b688ac5
:1014e0000112111be58a0112111b868b0112111bbf
:1014f000f88b0112111b918c0112111bf78c011238
:10150000111b658d0112111bba8d0112111b508e1a
:101510000112111b038f0112111bca8f0112111b23
:1015200087910112111bd2930112111b1794011202
:10153000111b93940112111bfb940112111b49956d
:101540000112111bde960112111b7e970112111b55
:10155000ef970112111b6f990112111bd099011203
:10156000111be69a0112111bd59b0112111bf19c54
:101570000112111b4b9e0112111b02a00112111b23
:10158000b2a20112111b40a30112111bfda30112f3
:10159000111bf0a40112111b54a50112111bb9a9b2
:1015a0000112111b1fac0112111bf1ac0112111b16
:1015b00064af0112111b86b00112111bb3b10112ed
:1015c000111bcab10112111bece70212111b2ae810
:1015d0000212111b91e80212111bbde80212111b2d
:1015e00089e90212111b60ea0212111bc47e00126b
:1015f000111b1d7f0012111b7e7f0012111baeb844
:101600000112111bccb80112111be9b80112111bf8
:1016100006b90112111b88b90112111b1bba011264
:10162000111bedbb0112111b53bc0112111ba0bcfd
:101630000112111bddbc0112111b12bd0112111b85
:1016400054bd0112111bc2bd0112111b70be01124b
:10165000111b88be0112111bc4bf0112111becc16a
:101660000112111b78c20112111bacc20112111b15
:10167000dac30112111b05c50112111b26c5011287
:10168000111b44c50112111b80c50112111bb3c5ea
:101690000112111b80c90112111ba8c90112111bd3
:1016a000f4c90112111b7dcf0112111bc3cf01120e
:1016b000111b03d00112111bb9d00112111b90d1c3
:1016c0000112111b06d40112111b77d50112111b37
:1016d000e8d50112111b22d80112111b9ad8011250
:1016e000111bded80112111b42d90112111b95d911
:1016f0000112111b31da0112111b7fda0112111bc9
:10170000dada0112111be4da0112111b21dc0112d9
:10171000111bb4dc0112111b80dd0112111b2cde28
:101720000112111bdddf0112111bffdf0112111b62
:101730001ce20112111b71e30112111b0ee40112d4
:10174000111b5fe40112111bf7e40112111be7e604
:101750000112111bf8e60112111b02e70112111b05
:10176000f1e80112111b4ce90112111b89e9011268
:10177000111bf6e90112111b25ea0112111bceea19
:101780000112111b49eb0112111baaeb0112111bd3
:1017900020ec0112111b57ec0112111b8cec0112f1
:1017a000111baaec0112111b09ed0112111b17edff
:1017b0000112111b56ed0112111bc7ed0112111b75
:1017c0008bf60212111b12f70212111b36f70212ce
:1017d000111b81f70212111bbef70212111bdafa5c
:1017e0000212111bcf9f0212111bfb9f0212111b31
:1017f00047a00212111b94a00212111b10a1021289
:10180000111b80a30212111bb2a40212111bbaa752
:101810000212111bc9a80212111bbfa90212111b2f
:1018200046ab0212111bc1ab0212111bd3ac021248
:10183000111ba6ea0212111bd2ea0212111be8eade
:101840000212111b82eb0212111ba8ec0212111bd7
:1018500000800212111b67800212111b8480021289
:10186000111bb1800212111bdd800212111b1181ac
:101870000212111b5e810212111b8b810212111bbd
:10188000ee810212111b49820212111b0e830212f9
:10189000111b8c830212111b2e850212111be6856f
:1018a0000212111b9d880212111b108c0212111bb7
:1018b000528c0212111ba78c0212111b5f8d021297
:1018c000111b398f0212111bdd8f0212111b1e908a
:1018d0000212111b8a900212111be2900212111bbc
:1018e00008910212111b5b910212111b9c910212b2
:1018f000111b1b930212111b35940212111b4694eb
:101900000212111bb0950212111bc6950212111b77
:10191000ee950212111b8d960212111ba296021255
:10192000111bd4960212111bec970212111bac98da
:101930000212111be2980212111b27990212111bad
:10194000da990212111b359a0212111b3a9b0212ec
:10195000111b8e9b0212111bd29b0212111b199d8f
:101960000212111b369f0212111b669f0212111bdd
:1019700030f30212111b3df30212111b60f302122d
:10198000111ba3f40212111bb0f40212111bdef49e
:101990000212111be7d80212111b5bd90212111b94
:1019a00080d90212111bcfd90212111becd90212dd
:1019b000111bb7da0212111b61dc0212111bbfdc12
:1019c0000212111bcddc0212111bd4dd0212111bfd
:1019d0003dde0212111babf80212111bd9f80212e4
:1019e000111b09f90212111b4aed0212111bd7ed4e
:1019f0000212111b09ee0212111b7aee0212111bc8
:101a00001eef0212111b31ef0212111bad4b00121f
:101a1000111b044c0012111ba44c0012111b184d79
:101a20000012111b384e0012111bf74e0012111b31
:101a300016510012111bb1520012111b3753001224
:101a4000111bff530012111b17550012111b885553
:101a50000012111b09560012111bfd560012111b1a
:101a60005c590012111bd3590012111b735a00123a
:101a7000111b1d5b0012111b295c0012111b115d53
:101a80000012111b0f610012111baf620012111b1b
:101a9000b4630012111b4a660012111b5b6900122d
:101aa000111b2e6b0012111bbc6d0012111b017259
:101ab0000012111b17730012111b97730012111bd8
:101ac00021740012111b8b740012111b8cef021277
:101ad000111b0af00212111b20f00212111b36f02a
:101ae0000212111b4cf00212111b6df00212111b9d
:101af00083f00212111b99f00212111bf2ac0212b8
:101b0000111b5dad0212111bbfad0212111be5ad21
:101b10000212111ba9ae0212111b53af0212111bac
:101b2000a8af0212111b47b00212111baab0021279
:101b3000111b1bb10212111b8db10212111ba0b19e
:101b40000212111bc6b10212111bfbb10212111bb2
:101b500023b20212111b55b20212111ba4b20212bf
:101b6000111be4b20212111b38b30212111b47b34e
:101b70000212111b50b30212111b08b40212111be6
:101b800057b50212111b97c50212111b8ac6021209
:101b9000111bf7c70212111b90c80212111bf9c8c2
:101ba0000212111b34c90212111b83c90212111b2c
:101bb000ccc90212111b15ca0212111b36ca02121d
:101bc000111b57ca0212111b6fca0212111b8acabb
:101bd0000212111bdfca0212111b35cb0212111b9c
:101be00093cb0212111bf0cb0212111b0fcc02126d
:101bf000111b1fcc0212111b33cc0212111b41cc42
:101c00000212111b4dcc0212111b6cf10212111b9e
:101c100099f10212111b93ee0112111b3aef0112fe
:101c2000111bf7fa0112111b2cfb0112111b31fdc4
:101c30000112111bc7fd0112111b2ffe0112111bf6
:101c400053fe0112111ba2fe0112111bf7fe01121d
:101c5000111b9eff0112111bb7ff0112111b79b559
:101c60000212111b96b50212111ba3b60212111b10
:101c700004b70212111bafb70212111b2eb90212c8
:101c8000111bd2b90212111b19ba0212111b82ba0e
:101c90000212111be0ba0212111b34bb0212111bfb
:101ca000c3bb0212111b41bc0212111b1bbd02124d
:101cb000111b59cc0212111bb6ce0212111beece13
:101cc0000212111b09cf0212111b3ccf0212111b71
:101cd00069cf0212111b99cf0212111bc4cf02123d
:101ce000111bf8cf0212111b20d00212111b66d05b
:101cf0000212111b88d00212111b3dd10212111bbe
:101d000090d10212111babd10212111be7f4021287
:101d1000111b4ef50212111baef50212111bb0f58c
:101d20000212111bc6f50212111b10f60212111b32
:101d300046f90212111b64f90212111b06d302129a
:101d4000111bebd30212111bd4d40212111bdcd4d1
:101d50000212111be4d40212111b3dd50212111bf9
:101d6000e0d50212111bdfd60212111b12d702128c
:101d7000111be7d70212111b45d80212111b861046
:101d80000012111b4afb0212111b15fc0212111b3f
:101d9000c1ff01e066701008a3e066700a08a3e0c6
:101da00066700408a3e06622c3e7960809e7960870
:101db00009e7960809e796a2d265d03322c3e096d8
:101dc00008a3e09608a3e09608a3e096a2d265d007
:101dd0003322c021c3e096f52108a3e096422108f2
:101de000a3e096422108a3e0964221a2d265d03317
:101df000e5217001d3d02122c3e7960809e79608b0
:101e000009e7960809e79622c3e09608a3e096083a
:101e1000a3e09608a3e09622c021c3e096f521082e
:101e2000a3e096422108a3e096422108a3e096454c
:101e3000217001d3d02122bb0102e722c09253922c
:101e4000fec082c08389828a83bb0003e08002e4f3
:101e500093d083d082d09222bb0015c0925392fec1
:101e6000c082c0838a838982f0d083d082d09222bc
:101e7000bb0101f722080808eac0e0ebc0e086f0e9
:101e8000e7a4fa180986f0e7a42afa180986f0e709
:101e9000a42afa180986f0e7a42afa1986f0e7a41a
:101ea000fbe5f02afa190886f0e7a42bfbe5f03ae7
:101eb000fa190886f0e7a42bfbe5f03afa1818099e
:101ec00086f0e7a4c5f02bfbe43afa1908e7c5f061
:101ed000c6a426f6e5f03bfbe43afa1886f0e7a440
:101ee000f6e5f00826f6e43b08f6e43a08f6d0e01a
:101ef000fbd0e0fa22e4cfc0e0e4cec0e0e4cdc005
:101f0000e0e4ccc0e075f020c3e633f608e633f633
:101f100008e633f608e633f6181818ec33fced3310
:101f2000fdee33feef33ffc3ec9709ed9709ee9713
:101f300009ef97191919400fffec97fc09ed97fd70
:101f400009ee97fe191906d5f0beecf709edf70971
:101f5000eef709eff7191919d0e0fcd0e0fdd0e059
:101f6000fed0e0ff22121fcd181818121ef5121f06
:101f7000bc19191922121fbc191919080808e618ea
:101f8000181820e7e0121ef5121fcd1818182209a4
:101f90000909e719191920e7dc080808e6181818d4
:101fa00020e703021ef5121fcd181818121ef51295
:101fb0001fcd181818121fbc19191922e4c397f75e
:101fc00009e497f709e497f709e497f722e4c39641
:101fd000f608e496f608e496f608e496f62260170a
:101fe000080808c6a2e713c618c613c618c613c643
:101ff00018c613c6d5e0e9226016080808c6c31340
:10200000c618c613c618c613c618c613c6d5e0ea46
:10201000227009080808226016181818c6c333c6ab
:1020200008c633c608c633c608c633c6d5e0ea229a
:10203000e627f60809e637f60809e637f60809e65e
:1020400037f622e026f608a3e036f608a3e036f6d7
:1020500008a3e036f622e026f008a3e036f008a355
:10206000e036f008a3e036f022c3e697f60809e66a
:1020700097f60809e697f60809e697f622c3e0c640
:1020800096f608a3e0c696f608a3e0c696f608a35f
:10209000e0c696f622e056f608a3e056f608a3e05e
:1020a00056f608a3e056f622e647f60809e647f694
:1020b0000809e647f60809e647f622e046f608a3cf
:1020c000e046f608a3e046f608a3e046f622e0461e
:1020d000f008a3e046f008a3e046f008a3e046f0cd
:1020e00022e066f608a3e066f608a3e066f608a319
:1020f000e066f622e0f608a3e0f608a3e0f608a3ff
:10210000e0f622e6f008a3e6f008a3e6f008a3e66e
:10211000f022e0faa3e0fba3e0fca3e0fd22eaf05a
:10212000a3ebf0a3ecf0a3edf022cac0e0e6f0a32d
:1021300008dafad0e0fa22cac0e0e0a30592f0a3e0
:102140000592daf6d0e0ca225392fefae9fb792131
:10215000e7f0a309dafae8f0a3ebf9f0a3ecf0a3b7
:10216000edf0a3eef0a3eff0a3e520f0a3e5f0f08f
:10217000a3e592f0a3e584f0a3e585f0a3e581f063
:10218000a3e531f0a3e532f0a3e533f0a3d0e0fa04
:10219000d0e0f0a3caf0eac0e0e0c0e07a007b0043
:1021a000225392fecac0e0ebc0e07921e0f7a30918
:1021b000dafae0f8a3e0f9a3e0fca3e0fda3e0fe77
:1021c000a3e0ffa3e0f520a3e0f5f0a3e0c0e0a3c7
:1021d000e0f584a3e0f585a3d0e0f592d0e0fbd054
:1021e000e0fae0f581a3e0f531a3e0f532a3e0f5f4
:1021f00033a3d0e0d0e0e0c0e0a3e0c0e0ea4b7061
:10220000027a0122b90010bb0008e88af084f8aa1b
:10221000f022e4fbc8fa22eb70227b10c833c8c955
:1022200033c9335007c39ac3dbf280069a50012aa0
:10223000dbeac833f4c8c933f4c9fa2275f008e4fc
:10224000c833c8c933c933c99ac99b5004c92ac9fc
:102250003bd5f0ecfbc833f4c8e4c9fa22600d08a2
:10226000c6a2e713c618c613c6d5e0f322600c0851
:10227000c6c313c618c613c6d5e0f4227004226084
:102280000d18c6c333c608c633c6d5e0f4182225d8
:102290003210af08f532400215338008f5324002a3
:1022a0001533d2af22c0d0253210af08f53250021c
:1022b00005338008f53250020533d2afd0d0222545
:1022c00032f58210af08f532400215338008f5323e
:1022d00040021533d2af85338322c5822532c582b1
:1022e000c583353310af07f5338582328007f53368
:1022f000858232d2afc583222532f582e43533f5ab
:1023000083222532f584e43533f58522e473539234
:10231000fe2532c582c0e0e53334ffc583c0e0e569
:1023200032c3958224f810af0885833385823280ca
:1023300008858333858232d2afcef0a3e520f0a3a7
:102340007821e608f0a3defaeff0a3e58124faf89d
:10235000e608f0a3e608f0a3e608f0a30808e608fc
:10236000f0a3e608f0a315811581d0e0fed0e0f8d7
:10237000158115811581e8c0e0eec0e0225392fe80
:102380002532c582c0e0e53334ffc583c0e0e532c5
:10239000c3958224f910af08858333858232800883
:1023a000858333858232d2afcef0a3e520f0a378c7
:1023b00021e608f0a3defaeff0a3e58124fbf8e6be
:1023c00008f0a3e608f0a30808e608f0a3e608f082
:1023d000a315811581d0e0fed0e0f815811581e8c4
:1023e000c0e0eec0e0225392fe853383853282e066
:1023f000a3fee0a3f5207821e0a3f608dffae0a32e
:10240000ffe0a3c0e0e0a3c0e0e0a3c0e0e0a3c021
:10241000e0e0a3c0e010af088582328583338008f6
:10242000858232858333d2afd083d0825392fe022d
:1024300011185392fe853383853282e0a3fee0a318
:10244000f5207821e0a3f608dffae0a3ffe0a3c0bf
:10245000e0e0a3c0e0e0a3c0e0e0a3c0e010af086c
:102460008582328583338008858232858333d2af7b
:10247000d083d0825392fe22c0925392fec0d025c8
:1024800032c582c0e0e53334ffc583c0e0e532c326
:10249000958224f210af08858333858232800885c7
:1024a0008333858232d2afc8f0a3e9f0a3eaf0a368
:1024b000ebf0a37921e709f0a3d8faecf0a3edf053
:1024c000a3eef0a3eff0a3d0e0f0a3d0e0f0a3d010
:1024d000e0f0a3e520f0a3e5f0f0a3d0e0f0225374
:1024e00092fe853383853282e0c0e0a3e0f9a3e069
:1024f000faa3e0fba37821e0f608a3dffae0fca34f
:10250000e0fda3e0fea3e0ffa3e0c0e0a3e0c0e0a5
:10251000a3e0f5d0a3e0f520a3e0a3f5f0e0a3c08d
:10252000e010af0885833385823280088583338548
:102530008232d2afd0e0d082d083f592d0e0f8d012
:10254000e032e584f0a3e585f022e0a3f584e0f530
:10255000852274048006740280027401c0e0f404d1
:102560001222bfd0e012212a227404800a74038050
:1025700006740280027401c0e0f4041222bfd0e0ad
:1025800012213722d083d082c5f0e493a3c5f0c3d3
:1025900095f0f5f0e493a3c395f04005e5f00480d1
:1025a00001e475f002a42582f582e5f03583f58318
:1025b000e493a3c0e0e493c0e022d083d082e9c0da
:1025c000e0e493a3c386f0c5f095f0f908e493a383
:1025d00086f0c5f095f0700be493a3c3994005e92c
:1025e000048002a3e475f002a42582f582e5f035ab
:1025f00083f583d0e0f9e493a3c0e0e493c0e02244
:10260000c0e0c0d075d008c092c082c083c0f07551
:102610009800e5a8f8c2af5392fe9004d4e0d2e14e
:10262000f0753400e8a2e7e433fee8a2e792af12c7
:1026300012e3d0f0d083d082d092d0d0d0e032c09c
:1026400082c0835392fe906059e0f89004a3e02882
:10265000f0906058e0f89004a4e028f090605a12de
:10266000267890605e12267890605ce0f89004a670
:10267000e028f0d083d08222e0f89004a5e028f092
:1026800022c082c0835392fe9004a3e4f0a3f0a37f
:10269000f0a380de74f712237d790012196d900388
:1026a000ef122eb9eac398f8eb99f9e82404fee991
:1026b0003400ff9003fce0fca3e0fdc3ee9cef9d23
:1026c000402e9003fae0fca3e0fd9003fee02af820
:1026d000a3e03bf9e8c39cf8e99df99003ef122ec3
:1026e000b0a3ecf0a3edf09003fcecf0a3ed80239d
:1026f0009003ef122b869003fc122cad9003fc127a
:102700002eb99003f1122eb09003f8e07004740219
:10271000800114f07aed7b031236ed02374074f736
:1027200012237de9600924fe601d14601a80329036
:1027300003f6e0a2e350099003f9e060241480203e
:10274000c2e2f0d2e380199003f6e0a2e2500c90ce
:1027500003f9e06408600ae0048005c2e3f0d2e215
:10276000f09003f7e070089003f574fff080489054
:10277000600a122b7e703d90618fe0c0e09003f9fb
:10278000e0f87408c398f8d0e0b800028004c313de
:10279000d8fcf52174ff6521700990600ae4f0a36c
:1027a000048010e5212401f8e43400f990600ae87f
:1027b000f0a3e9f012269402374074f712237de962
:1027c00024fc600624fe6028800d9004bce06401b7
:1027d000705e1216cd8059900416e064017011905d
:1027e0000410e4f07b09122fa979001219bb804074
:1027f000900410e0700890040e74fff080327900ad
:1028000012196d8a218b22a821a922900412e02896
:10281000faa3e039fb90618fe0541ff8ea28f8eb47
:102820003400f9900408122eb07a067b041236edbb
:1028300002374074f712237d74fe1222bf12254224
:10284000900460122eb9e82412fae93400fb90607b
:102850005ce060088a828b83e0d2e1f0e82430fcff
:10286000e93400fde82432f584e93400f585906010
:102870005ae0700690605ee060368a828b83e0a248
:10288000e14019d2e1f0e82422f582e9122b63122b
:102890002b7612227c8c828d831236e5e40592f031
:1028a000a3f079008532828533835392fe02373854
:1028b000e8241ef582e9122b6afea3e0ff858482dc
:1028c000858583e02ef0a3e03ff08c828d83059216
:1028d000e0fca3e0fdc30592e09ca3e09d50c3880b
:1028e000828983a3a3a3a3a3a3a3a3a3858284858f
:1028f00083858a828b83e0a2e1500474088002748d
:102900003e0592f07b02888289830592a3a3a3a34c
:10291000a3a3a3a3e0fa79001219bb7901808574ff
:10292000f512237d74fe1222bf122542122b6e2453
:102930000a122b52fc7003022b4dee242e12339ef2
:10294000122eb98e828f83a3a3a3a3a3a3a3a385cf
:1029500082238583248e828f83a3a3a3a3a3a3a30f
:10296000a3a3aa82ab83ee2434122b67687003a35f
:10297000e069701a74026c7003022ae374016c60df
:102980007774096c60258a828b8374228055ec14dd
:102990006066147003022ae324fa601c14600c14ad
:1029a0006042147003022b29022b4d906008e0a2b4
:1029b000e65003022b4d802cee2439122b6080133d
:1029c00088828983a3a3a3e064037003022b4d884c
:1029d000828983122b7e70e88a828b83e064137075
:1029e000037416f07b02852382852483e0fa790044
:1029f0001219bb7901022b4fee24551231a2ee249d
:102a00004cfcef3400fdea24fff521eb34fff52206
:102a1000e521687003e52269706dee244d122c0cdf
:102a20008e828f83122b848c828d83e0c333f8e4f3
:102a300033f9e82403f8e93400122ea7900491e05a
:102a4000a2e050098e828f83a3a3122eac9004ab18
:102a5000e4f0a3f0a3f0a37402f0900491e0a2e0ec
:102a60004003022b4d906062e4f08c828d83e0f88d
:102a700075f0e2a4c8aaf075f004a42af9e8122eb1
:102a80009c122eb0022b4dea687002eb69600302c3
:102a90002b4d7521097522007821122556ee241b35
:102aa000faef3400fb121d8774021222a5900491e4
:102ab000e0a2e05007eefaeffb121613e40592f0e5
:102ac000ee242212339e122b7612227cee24301238
:102ad0002b601236e5ee2432122b60e4f0a3f07b7b
:102ae00008805de8240108e93400f9ee245c122b2b
:102af00067687003a3e0697054752105752200783a
:102b000021122556ee2457fcef3400fdee2424fa62
:102b1000ef3400fb121d8774021222a5eefaeffbc0
:102b20001216c7e40592f08024eefaeffb1212e9c8
:102b3000e40592f00592900491e0a2e0500f7b072b
:102b4000852382852483e0fa79001219bb7900027b
:102b50002faef584ef3400f5850592e022ee2414c3
:102b6000f582ef1233aa22f582ef12351822900473
:102b7000601234f1ee22122cd97403782122122e25
:102b8000bde84922a3a3e028f0a3e039f02274f8bd
:102b900012237d74fe1222bf122542900460e0f5dc
:102ba00084a3e0f58512291fe9704e122833e970dd
:102bb00048e584242ef582e585122b6a2401f0a3d2
:102bc000e03400f0906008e0c0e0e5842436f5824f
:102bd000e585122b63d0e0f0e584241ef582e585bf
:102be000122c0f0592a3a3e028f0a3e039f0059280
:102bf0009004601231a51236ed853282853383123e
:102c0000254a74021222a57f01022432f582ef12b6
:102c100033aa122c1622e0f8a3e0f9e8c333f8e94e
:102c200033f92274f712237d74fe1222bf1225425b
:102c30008a828b83a3a3ac82ad839004b0ea241e66
:102c4000f584eb122b55f8a3e0f9e8c333f8e93328
:102c5000f9900493e0f521a3e0f522122cc305922c
:102c6000e028f8a3e039f98c828d83122eb090040d
:102c7000ab122cb68c828d83122cad9004ad122c2d
:102c8000b67a207b4e122204882189228c828d8381
:102c9000e09521f0a3e09522f09004b2122cb6e862
:102ca000c333f8e933f9e8122e94023731c3e098c0
:102cb000f0a3e099f022122ebd900493122cd912a9
:102cc0002cc322e88521f0a4c8aaf08522f0a42a0a
:102cd000fa8521f0e9a42af922e0f521a3e0f52202
:102ce0002274f712237d74fe1222bf122542122b8a
:102cf0006e2412122b52a2e35008c2e3f005920296
:102d00002e888e828f830592a3a3858221858322bc
:102d1000906062e06010791012196d852182852221
:102d200083eaf0a3ebf012291fe96003022e91124f
:102d30002833e96003022e91906008e0c0e0ee24a1
:102d400036122b60d0e0f09061d5e0f89061d7e0ca
:102d50006805926005e0d2e28003e0c2e2f00592ed
:102d6000906062e09004ad6017e024c0faa3e03404
:102d700037fb1239489004b21234f7122e948015a2
:102d80001231a51239329004b2122c12906064e014
:102d900028f0a3e039f0852182852283e024fff02a
:102da000a3e034fff0ee242b122b679004aff0ee7b
:102db0002420122b60122b7e604b8e828f83a3a364
:102dc000a3a3a3a3a3a3a3a3e0703aee24321231da
:102dd000a2ea4b7030ee24391231a2ea4b7026e899
:102de000240108e93400f9900493122eb085218261
:102df000852283122eb99004b0122eb0eefaeffbaa
:102e0000122c2380279004937401f0a3e4f0ee24a5
:102e10001e122c0c852182852283122b869004abf6
:102e2000122eb9852182852283122cad8e848f8546
:102e30000592a3a3a3a3a3a30592906064122eb945
:102e40007a717b02122204e82405f8e93400f9853e
:102e50008482858583122eb08e828f83a3a3a3a341
:102e60001231a5858482858583e0f8c3ea98eb99c1
:102e7000a2d265d0335005eaf0a3ebf0122eb6eee5
:102e8000242e122b60122b869004601231a512366c
:102e9000ed023732122e9ce8f0a3e92224eaf8e989
:102ea0003402f990606422f98e828f83a3a3a3a3d6
:102eb000e8f0a3e9f022900493122ebd22e0f8a3db
:102ec000e0f92274f512237d74fe1222bf1225420e
:102ed0008031c2e512389ec0e09004bae0122f8d16
:102ee000d0e0f09004bae004f0a3e004f0a3e00422
:102ef000f09004bee0700c7401f07b007a00790061
:102f00001219bb90605ae0f521906002e0a2e050f7
:102f1000047800800590605de0f89004bbe0fae57d
:102f20002128f8e43400f9e86a7001e96057900458
:102f3000bae0f52374012523547ff521e523122ff0
:102f40008de0f808089004bae028f074802521f597
:102f50008274601233a1900460e0f8a3e0c82408f2
:102f6000f584e83400f585e0a2e70592e04003022d
:102f70002ed2d2e5f0122fa024dbf0122fa9122faf
:102f8000a04a022ee2853282853383802a122f9155
:102f900022547ff8748028f58274603400f583220f
:102fa0009004bae0122f91e0221238a3fa2285325f
:102fb000828533835392fe12254a74021222a57f22
:102fc0000402243274f512237d74fe1222bf1225ee
:102fd0004289210592900460e0f582a3e0f58385a3
:102fe0008284858385a3a3a3a3a3a3a3a3e0a2e7cd
:102ff00040479004bde0f8906054e0c398f52290fb
:1030000004bde02522f0ae82af838012ee2439faaf
:10301000ef3400fb1215e9ea4b60031217d5852245
:103020002374ff2523f5220470e2e521a2e640097e
:103030007900eefaeffb121745022faec0e074f1f3
:10304000122478e535f5c675a70075a100795012f0
:10305000198b7f010224dfc0d075d01875bf00d056
:10306000d032c0e0c0d075d018c092c082c083c03a
:10307000f0e535f5c6e591fe759b00f4f5915392a8
:10308000fe906002e0a2e0500478008002780879a7
:1030900000e844015e6003122ec3eea2e55004f97d
:1030a000122fc4eea2e75029e5a8f8c2af9004d4cd
:1030b000e0d2e0f0753400e8a2e7e433f9e8a2e7f3
:1030c00092afe594a2e24009759403e594a2e25020
:1030d000faeea2e64003023179906061e0f99004d3
:1030e000bbe4f09004bdf09004601231a58a828b9d
:1030f00083a3a3a3a3a3a3a3a3e02410601224fc8f
:10310000600924fc700f12271e80661227ba8061a6
:1031100012160d805c900490e0600514601480230a
:10312000906060e06480601be0c0e012318dd0e010
:103130008010906058e0f890605ce028f812318dc3
:10314000e028f0906060e064806016e0c0e09004e9
:1031500060e0f8a3e0c82413f582e8122b63d0e006
:10316000f0900491e0a2e05005122ce18003122bb4
:103170008e12263f1215fb8004a2e750031237453a
:10318000d0f0d083d082d092d0d0d0e032ea242cbc
:10319000f582eb123518fa746b2af5827404123337
:1031a000aa221233a7e0faa3e0fb2274f712237dd0
:1031b00074fe1222bf122542900460e0fca3e0fde1
:1031c000122eb6ec2429f582ed122b63ec242bfa97
:1031d000ed3400fb8a848b857401687001e97012fc
:1031e000e0f80592e028fac39425402a74db2afa15
:1031f0008024e0f521e88521f0a4f8aaf08521f0eb
:10320000e9a42af90592e0fae82af8e93400f97a03
:10321000257b00122204eaf074075af87401b80002
:10322000028004c333d8fcfbea131313541ff8ecd9
:1032300028f8ed3400f9e82424f582e91233a1e0fe
:103240005b702a8005e8cac39afaec24e5f582eda2
:10325000122b6af8eac39850ec8a21ec2521f8ed8c
:103260003400f9e824c0f582e9122b6afaec242c28
:10327000f582ed122b63ea02373174f612237d7466
:10328000fe1222bf122542900417e09060026004f3
:10329000740e8002740ff0900411e0906001f090c1
:1032a00008c612211290619512211e121751900426
:1032b00016e0f5217401652190040f7040e054027e
:1032c000f97a187b0412163190040fe0a2e050093d
:1032d0007a9d7b0475214080077a977b04752100d5
:1032e000a2e150047e8080027e00752306782312be
:1032f000255a7c187d04e5214e44018066e0a2e059
:1033000050087a9d7b04784080067a977b04780089
:10331000059290043d1225757c1e7d0474ca2521fa
:10332000f58274081233a1e048f9121637740112bd
:1033300022a5900416e0f86005740268702e9004cf
:103340000fe0a2e050087a9d7b04784080067a97cf
:103350007b047800059290045d1225757c3e7d0407
:10336000e84404f912163774011222a590040fe004
:10337000a2e0e433f912162b759100900417e09047
:103380006182600474c8800274c0f0853282853323
:103390008312254a74021222a57f03022432f58289
:1033a000ef1233aa059222f582ef3400f58322c092
:1033b00082c0835392fe906002740ff09003f8e095
:1033c00004f064037002e4f0e02425906000f090c3
:1033d00008c612211290619512211e9003f6e05446
:1033e00020f912162b1217519003f6e0a2e15004b7
:1033f000d2f08002c2f0a2f0e43390600cf09003af
:10340000f6e0a2e1503575d90da2e5500478408070
:10341000027800e84403f5d9e0a2e550067a9d7be6
:103420000480047a977b047906121601740675d914
:10343000001470fae5e170fc75e1957591009061fa
:103440008274c102267274f812237d74fe1222bfa8
:103450001225421234e4121751122b5d12211290e0
:10346000619512211e1235331231ab1234fcf584f2
:10347000ef3400f58585848285858312351e121709
:1034800045ee2412122b67a2e250180592e0f8a331
:10349000e0f58388820592a3a3e02402f89061d529
:1034a000e028f0022bf974f812237d1234e412178d
:1034b00051122b5d12211290619512211e1235338b
:1034c0001231ab1234fc122b6012351e121745ee6e
:1034d000241e122b601234f724fcf8e934ff122e5c
:1034e000a7022c079004601234f1906002740ff070
:1034f00022e0fea3e0ff22122c16e822ee242c127a
:103500003515906000f07591009004c8e0906182dc
:10351000f0ee243922f582ef3400f583e022122efa
:10352000bdee24371233a7e8f0a3e9f07900eefaf4
:10353000effb22ee2436123515906008f0ee2418c9
:10354000123515906005f0ee2419123515906006bd
:10355000f0ee241a123515906007f02274f1122350
:103560007d74fe1222bf1225427521007522007c57
:10357000677d04801b888289831234f18c828d835d
:10358000eef0a3eff0888289831236e58821892244
:103590008c828d83122b714f70398c828d83eaf06f
:1035a000a3ebf08a828b83e4f0a3f0aa21ab2285ff
:1035b000328285338312254a74021222a57f0802c3
:1035c0002432e5232527f8e5243528f98a828b83e0
:1035d000122b84eef8eff988828983a3a38a848b67
:1035e000850592a3a3e0f523a3e0f5240592e0c3ab
:1035f0009523f523a3e09524f5248a828b83a3a346
:10360000a3a3a3a3e0f525a3e0f526c3e523952511
:10361000e5249526a2d265d033403e8a828b831260
:103620002eb08a828b83a3a3a3a3858284858385fe
:10363000122eb9c3e52398e52499a2d265d0335060
:103640000d858482858583e523f0a3e524f08c82b3
:103650008d83eaf0a3eb0235aa88828983a3a3a312
:10366000a3a3a3e0f527a3e0f528c3e49527f52558
:10367000e49528f526c3e5259523e5269524a2d2d1
:1036800065d03350288a828b83a3a3a3a3a3a3a3cb
:10369000a3e0a2e750030235c288828983a3a3a3d3
:1036a000a3a3a3a3a3e0a2e75003023575888289f0
:1036b00083a3a3a3a3858284858385c3e49523fc88
:1036c000e49524fd1234f1c3ec9eed9fa2d265d0a7
:1036d00033500b858482858583ecf0a3edf0e8fc04
:1036e000e9fd023590e521f0a3e522f02274f712fe
:1036f000237d74fe1222bf122542ea4b6031a2af35
:10370000e433fec2af12355c8a828b838016aa82b4
:10371000ab838582848583850592e0f582a3e0f5fd
:103720008312355ce582458370e4eea2e092af80bf
:1037300001f085328285338312254a74021222a554
:103740007f0202243274f512237d790012196d8aea
:10375000238b24797712198b9061b1e4f0e070f833
:103760007401f0e0640170f8900467122eb99004bf
:1037700060122eb0e8497012123887e594a2e24038
:10378000030238817594000238818882898312315e
:10379000a5900467eaf0a3ebf088828983a3a312c3
:1037a0002cd988828983a3a3a3a3e02521f8a3e0d1
:1037b0003522f9e824fdfee934ffff906060748053
:1037c00012389e2410601424fc600624fc600780dc
:1037d0004712327a80521233af804de521c39523d0
:1037e000e5229524c39400a2d265d0335025e52369
:1037f0002401f521e5243400f522c3e5219ee522cc
:103800009f400ae5212401fee5223400ff9003efea
:103810001236e51217578010900491e0a2e050058f
:1038200012344680031234a6aa21ab227930121931
:103830007feefaeffb794012197f795412198be56c
:1038400021c39523f8e5229524f9c3e89401e9946e
:1038500000a2d265d033500c121769e5e170fc75f7
:10386000e121801d900367e0a2e04012aa21ab2273
:103870001219799004a712211e123887800312179b
:1038800069121847022fbfe5a8f8c2af9004d4e030
:10389000c2e0f0753400e8a2e7a2e792af22f0128e
:1038a00038a322900460e0f8a3e0c82408f582e879
:1038b0003400f583e0220000853487c2af22c0e0e7
:1038c000c0d075d018c092c082c083c0f074fc1202
:1038d000228f5392fe9004d5e0601c1216259003af
:1038e00067e054117008e5c654384487f5c6900463
:1038f000d5e4f0c2c78026c2c7853282853383aa49
:1039000082ab83121763e9640170129004d57401cd
:10391000f085328285338312211212183b753400f0
:1039200074041222a5d0f0d083d082d092d0d0d00f
:10393000e03275c3007420c39afa744e9bfbeaf51b
:10394000a2ebf5a35392fe22c02175c301e5a2f5b7
:1039500021e5a375c300f9e5212420f8e9344ef9e7
:10396000e8c39af8e99bf9e8f5a2e9f5a3d0215359
:1039700092fe22c082c08374fc12228fe5a8f8c296
:10398000afe5958532828533835392fef0e596c08c
:10399000e074011222f8d0e0f0e597c0e074021262
:1039a00022f8d0e0f0e8a2e7a2e792af7403122277
:1039b000f8e4f085328285338312211274041222d6
:1039c000a5d083d08222c0e0c0d075d018c092c0ec
:1039d00082c083c0f0e59da2e040fae59d123973f4
:1039e00090060812211ee5abf8e5895890060cf008
:1039f000e58090060ff090060ce0f4f5899062d017
:103a0000e0f8a2e1502790060ce0a2e5501f53ab6e
:103a1000df9062d0e0a2e0e433900612f090060c52
:103a2000e0c2e5f07b307a0079061219bb90060cf3
:103a3000e060097b007a0079061219bbc2c5d0f09c
:103a4000d083d082d092d0d0d0e032c0e0c0d07548
:103a5000d008c092c082c083c0f0e59da2e040fac9
:103a6000e59d12397390060812211ee58df8e58a4e
:103a70005890060df0e590900610f07b017a0079e1
:103a8000061219bb90060de0f4f58ac2eb80afc0b8
:103a9000e074f11224789061a9e4f0900617e064d4
:103aa0000f7012e5c7f8900368e0f5c790ff1ce0bf
:103ab000f4f5ae88c7e5bbf9e5bafae9fb9006175d
:103ac000e0c333f8e433f9741828f582740639f545
:103ad00083eaf0a3ebf0900617e02410fb7a00795c
:103ae000061219bbe5a8f8c2af9004d4e0c2e2f018
:103af000753400e8a2e7a2e792af7f010224dfc09d
:103b0000e0c0d075d018c092c082c083c0f0e5d1ab
:103b1000f875d100c2c0a2e350097b037a00790492
:103b20001219bb023a3ec0e0c0d075d008c092c0a6
:103b300021c022c082c083c0f05392fe90070e12b3
:103b40003c3f602b9006c9e0700c7401f07b007a5a
:103b50000079041219bbee90070ef0e5c1c0e074c5
:103b6000102521f58274073400f583d0e0800be541
:103b7000c4a2e650069006c87401f0023c2ec0e0d4
:103b8000c0d075d008c092c021c022c082c083c0fe
:103b9000f0c2e95392fe9006cbe0fa9006cae09a92
:103ba000543ff860258a2174cc2521f582740612d1
:103bb0003ca99006cbf089c190070ce06870197b96
:103bc000027a0079041219bb800ee5a8f8c2af9002
:103bd00004d4e0c2e3123cb58054c0e0c0d075d03c
:103be00008c092c021c022c082c083c0f05392fea0
:103bf000900798123c3f602a900753e0700b7401c5
:103c0000f07b00fa79041219bbee900798f0e5f901
:103c1000c0e0749a2521f58274073400f583d0e062
:103c2000800be5fba2e650069007527401f0d0f03d
:103c3000d083d082d022d021d092d0d0d0e032e038
:103c4000f52174012521543ffea3e06e22c0e0c09f
:103c5000d075d008c092c021c022c082c083c0f0fd
:103c6000c2ea5392fe900755e0fa900754e09a5446
:103c70003ff860258a2174562521f5827407123c8d
:103c8000a9900755f089f9900796e06870197b02b2
:103c90007a0179041219bb800ee5a8f8c2af90042e
:103ca000d4e0c2e4123cb580853400f583e0f974b9
:103cb000012a543f22f0753400e8a2e7e433f9e822
:103cc000a2e792af22c0e074f0122478906206e07e
:103cd000f89007f0e048f0906202e0543ff521755b
:103ce00022007404782112227c9007f0e04521f034
:103cf000a3e04522f0906204e0543ef521752200d5
:103d00007409782112227c9007f1e04522f0900797
:103d1000f0e054046007e054fbf0121cbb9007f184
:103d2000e054016013e054fef09007ffe060097b6f
:103d3000037a0079071219bb121ceb9007f1e054cb
:103d400020600de054dff07b027a0079071219bb86
:103d5000758b00c2e87f020224df033f00000300ee
:103d600004280d98089007900194011b0195111be0
:103d700008f00939821f0ea4fecd82210622fb38ed
:103d80001818162118f0ef3818f2ed3828f2eb3831
:103d900068f003392a1fe73f08f00428ba3868f0b2
:103da000393c08f1053c88f1173ca8f10e3ce09f36
:103db0002c1f0128104a291fd63f15d0033827d0c1
:103dc0000938009004289f3f0128154101980128d7
:103dd000014a25d01f38041f831f0ea4fecd0422e4
:103de00005381421202807a0083f0628681527d089
:103df000e939202807d0f238832178f102380421ec
:103e000088f1083d0628a14001f0042884380428e0
:103e100007a005284d1528f1163c68f1143d77cf11
:103e20001240599202d80f3912d00739699222d024
:103e30000439799242d004380528ef151e3fc09fff
:103e400004286c3f08f1233c88f1203d094028f10b
:103e5000103d4540f7c759f2083d9303131183e124
:103e6000b9f00f3c23e00d3f09d8ea38f9c30b3f06
:103e700068f1033d59f2f23c09d8f9390528bd151e
:103e80000528f01501900128214a051f48f00c3c37
:103e900008f10a3868f1033c98f106390c960528b8
:103ea000f9150228843f47a00c960528f315531fe7
:103eb0000528e31507288ced0528ec150128019548
:103ec000711b01280ce40528e515511f88f10b38fa
:103ed00008f1073868f109390128214201f00b394e
:103ee00047d009383521063f28f1033838f1033926
:103ef000351f341f04280ce047d0033903280ce891
:103f00000528c815571f28f00638561f811f021fa5
:103f100038f0063930215b9005283b15fd3f88f1cc
:103f2000033d0428f7150528811547d0133808f1fb
:103f30000f392c470cf00c38c403b4125c110c3e42
:103f400004f00a38c103802801a0411b063f30213c
:103f5000043f07284ced4c1b5b9047d0173827d007
:103f60000328e8390ea4fecd02220d3900220838bc
:103f70001021002914e00328dd3c4c1bf13f0528eb
:103f80009e15ee3f46181221033f0528021588f1c1
:103f90003039052811150128fb41302100291be08b
:103fa0000a3d0428f61505280715f6c35192166a2e
:103fb0003b906b080428ed150428fe150bf0fb3927
:103fc00017d004382d1f0128c43f0328214701f0d2
:103fd00008390328314701f00439a2958090033f46
:103fe000c29500920328b615201b54900128b33fb8
:103ff00008f10539052111900128214a38f10339ca
:104000000021023f302110216a030428c2156b03ee
:104010003141224128f1093d02f00239f29101f0cb
:104020000b39ff28f191083f02f00239529201f05a
:104030000339ff28f193f7cb1b06023907a4b20c12
:10404000073d47d003286e3824900328753f16900b
:10405000b6080428b115a6030428ae153be0f7ce38
:1040600028f1703c012807a0f090a00668f1323dcd
:10407000149030f0053938f103285e38073f50f0ce
:1040800003285a3958f10328573838f104380328df
:10409000ab15033f0328891503287515012807d0a0
:1040a000033907a1563f424130f00c3907a112d025
:1040b000033807d84e3887a0c14041d04a38f7cee0
:1040c000483f38f1033822d0443807d8423907a195
:1040d000403f78f1123847d02d3800f0033860f0b7
:1040e0000639c14011d0073887a0113f10f00338be
:1040f00020f0ab3977cf0b3f00f0033810f0a53933
:10410000414181d0043903285015093f03286c151b
:1041100068f10539414141d0023907b810f006393c
:1041200003283115012807d0033807d8123907a111
:10413000103f40f00228fc390328141507d8f8383e
:10414000083fa10383403112310511d0023907a184
:104150004bf0063c04281d1504282e15fa3f0428b0
:1041600018151bf0fd3d38f103380328a115f7cdd4
:104170000328214701f005390328314701f00338ae
:1041800007a2f7ce224082d00a380603042814156d
:10419000069376062611960404280e157103411223
:1041a000002871c021070438e7cf4198043f17d099
:1041b000043951980728214817d00538f29520284e
:1041c00000901d3f07d20438c2950092183f07d1d6
:1041d0000438d2950094133f07d40438e295009830
:1041e0000e3f809028f10a3d3190a10631f006394a
:1041f00003a4b2950228aa1500a1a2950228a6152b
:10420000201b28f1633d08f10a39012807d007393e
:10421000072851411128c14a012807a017d20539a2
:10422000e3cf8ad0023813a007d20539b3cf4ad0e2
:10423000023843a083d01e3931031112310521d039
:104240000739319907282148002915e0133f529575
:1042500002287c15454003d10d3942950228761578
:10426000281f21990728214803d204386295022883
:104270006d1573cf834808f1093977cf17d0063908
:1042800007d203390ad1023887a0349007d2073801
:1042900007d803383090543f07a8023ff7c718f1fa
:1042a0005a3927d04c39314011d0493987d0073994
:1042b00017d0453907d203390ad1413805f04b39b7
:1042c000414001f0483850903b3f68f1153878f193
:1042d0003938149017d03d3907d23d3987d003388b
:1042e0003490393f07d1373911900128214a409045
:1042f00003286e15253f47d01c38249007d30c396e
:1043000011900128214a87d008385144002911e032
:10431000043a514c023877cf17d01b3987d0033875
:104320003490193f07d31739c14021d01438073fc3
:1043300017d00f3907d303383090023f00904490d4
:104340000a3f249017d0053907d305393490033f2d
:10435000a09f44900221c190511b8121342124f05f
:10436000083927d004390c9cfd2bae3f10904490a7
:10437000b7cf34f00e3953210328e195711b541f38
:104380000f28cc9506282141f1c081111c09143f4a
:104390000190511b0728f19f711b802114f0012807
:1043a000863854f0fd2b0a380128ad3f541f0328ee
:1043b00064151028cced03286d1576217821501f47
:1043c0000128a29a217001b2218001b221802ce340
:1043d0000328601574210128ace408f1073c88f13a
:1043e000033d0228971503282115011f0128349d3c
:1043f00003285015201f002168f0093d069058f051
:1044000003390728364102289315fa3f0728504000
:1044100078f10439331f321f0421500000dc0128d9
:104420007c3828f1103d8340f7cb31031112310560
:1044300021d0033903d1033900d8103807a41b90c9
:104440001a90163f00d80128683998f107394b7047
:104450000128e2412b0800288e3f102807a04b704e
:104460001bf0fc2bed3c4a70224128f1303d02f05c
:104470000239f29112e0b20cfc2be23c4190310681
:104480001111ff2be29f3204520022111a042a0458
:104490003240002862c018f1033927d00d3922f0cc
:1044a000093907280141b109002921e0093a0aa187
:1044b000073f42f00339face033f62f0f93818f1b2
:1044c000253977cf0ad1223887a0203f02f0023960
:1044d000529212e0b20cfc2bb33c68f1123d38f161
:1044e000153887d013390128314201f00f384028a0
:1044f00007a00728914231c0c1a00728914a063f72
:1045000002280190710621121a04ff2bf29fb208b3
:104510004be0a60302280c1526030228091568f1b2
:10452000293cfbf0273c6290467002280115d237e7
:104530000428609662904670062d0128f915c2374e
:1045400078f11839d04000d81538dbf0133c829050
:1045500046700128ed15d237764400d40338060e94
:10456000023f060d41700128e315417086120128b3
:10457000df153290b20c053d46700128d915fb3f7e
:1045800008f1063941721128c14a012807a0ef2815
:10459000f7cf28f11e3d83403090a0063103111261
:1045a000310521d003398295043f30f004397295ea
:1045b0000028cc1553c843d0023823a007d40238b2
:1045c00003a130f0023903a2834892950028be155a
:1045d00006900bf005380128ab15591ffb3f0ea4c0
:1045e000fecd0122043902286a15fa3f551f112118
:1045f000031f249008f10f390ad1033987d02438da
:10460000314011d0213905f02139414001f01e38e7
:1046100050901b3f48f1073828f1033858f106390c
:1046200087d0143877cf1490113f78f10539119065
:104630000128214a093f98f10939829500288a15f5
:10464000281f5490033f009044900ea4fecd0322f7
:10465000043902283415fa3f13212c1801210321b3
:10466000741ff1900000f1370190511b0728f19f52
:10467000711b802132210728914231c00728914abd
:10468000bf28f7cf28f1063c88f1043d92955e15ce
:10469000281f44f0383814f00a3854f0fb2b8e38b9
:1046a00001280ce40128f615fc2b023f0128901587
:1046b000009027d0283902d8083838f124393290b0
:1046c00001289215e237193f19e089f2043c38f1cc
:1046d0001a39599238f1033901288615124091038d
:1046e000002951e2120e12d0f03801288615012857
:1046f000b9151240012891153199072821482c1825
:10470000fe2b553f0128104a0028a915fb2b2b3ff3
:10471000f09f043fd09f023fb09f0028d0152c1f70
:10472000f23f28f1053c68f1033d1490053f2090cd
:10473000023f1090449041980728214838f1fe2b01
:104740000a380028b515fe2b063f217011e02180a4
:1047500002000128214107282148217811e0218801
:104760000200f7c7761571033112a10501d4023991
:1047700007a80428649631150238f7c70428c4f640
:10478000fb3c0200fe28f7cf641551417111a105d1
:1047900001d80339012807a064911f150338fe28aa
:1047a000f7cfc4f1fb3c0200f7c753155141022873
:1047b00007a00ad40339fd28f7cf5111a10501d470
:1047c000023907a8c4910428659607150238f7c76f
:1047d000563124f2fb3c02000028db150028ec15c2
:1047e000412d160c0200f7c73415d032d3322342c4
:1047f00068f109394141904041d004385000030626
:10480000023f03033142022807a00ad404395100b1
:10481000fd28f7cf13064492042865960028b915a1
:104820000028ca155631ff28e19f4070060c023857
:1048300013068ea0810064e044f5f83c0029f4e200
:10484000a4f2ed3c03f0023807a8d32fd02f0200ca
:104850009bf0023c020007a12de0020098f109380c
:10486000102807d0033908f1043831990728214866
:1048700008f10c39012807d00938072851411128bf
:10488000c042010c0338072850491190082807d06e
:1048900005380628b148f728f7cf042807d005388f
:1048a0000628a148fb28f7cf3021291f0200311f1d
:1048b000ff28f19f411b301f3121020002210121fd
:1048c0000321532309380628d14001d112384198d9
:1048d000072821480b3f54230c385021f191000048
:1048e000f137741ff1900000f13768f0023c2b1f84
:1048f0000190511b81210728f19f711b80210728fe
:10490000914231c00728914abf28f7cf3221342184
:104910000200082807d007390628b14001f0043802
:10492000082807a0020004280d98fe2bf43f402819
:1049300007d00d390ea4fecd012204390028bf1581
:10494000fa3f661b112100291be002000728a64a36
:104950000ea4fecd012204390028b115fa3f01282a
:104960003142b10941e0053a08384bf00c38ea3dd4
:104970000728a142611be73f0728914271cf072812
:10498000914af73f0728914281a20728914ada3fce
:104990000ea4fecd0222043900289115fa3f4618d4
:1049a000122100291be01bf00639581f0628e040a1
:1049b0000128004a020017d00a393122063817a010
:1049c000419807282148033f0728a64802001240c3
:1049d00038f1093802d807399103002941e2120e53
:1049e000120d1248020047a07b280c9c1021521582
:1049f000ff2b5e15b7cf020059f203396391083fd0
:104a000069f20339e392043f79f2033943960200d5
:104a100004280d98fa2b143f02d40738910300297b
:104a200001e2117006286148020088f10a3c012861
:104a300031410728814ab1460328314fa1460f3f33
:104a40000728894a28f1063d31440328314f514057
:104a5000053f552851950328314f81110328214fd7
:104a60000200e3f3033cf190033f23e05192062858
:104a7000614a0628434802007b21772141900000cb
:104a8000f137702175217a218cee0415521f801f99
:104a900002004c1b001f47d0033827d009390ea451
:104aa000fecd002203390b15f73f10210200042828
:104ab0000d9838f1fe2b2738fe2b3c3fd2320218de
:104ac0000119210601d41a381218162162f003398f
:104ad0002a1f2d3f12f2153822f22838fe2bef152f
:104ae00068f0063c61900128114afe2bb815302170
:104af000280304280d98f92b373f01d114381421cd
:104b0000202807d00d3878f1123904231038714469
:104b100001f002398144002911e0714c083f20283e
:104b200007a0053f01d20538152127a0d22f02008a
:104b300011d00638102104280d98fd2bf33ff2ce3a
:104b40005200121bf43f0306030202030302060293
:104b5000030301050202010001010101000003023b
:104b60000000050002070700020301010108060614
:104b70000503040401030602020202010f000803f8
:104b800005050207000000030202010505010109f5
:104b900001010201010202010103050001030100fc
:104ba0000000010104040203020104010074f51273
:104bb000230eeafeebff8923e9c39411400375231a
:104bc000108523217522007821122556121d877425
:104bd000021222a5741065236027852382aa82749d
:104be00010c39af52195e0f52278211225567c0014
:104bf0007d00ee2afaef3400fb121d8d74021222a2
:104c0000a50253d974f012230e74fe1222bf12258e
:104c10004274c012228f7e008a828b83a3e0f470dc
:104c2000358a828b83e0f8c394405004e8fe80020a
:104c30007e408e2175220078211225568a828b8330
:104c4000a3ac82ad8374021222f8aa82ab83121d38
:104c50008774021222a51252a7124ee990095078c9
:104c60002512204390095478251220957408782540
:104c7000122011782179251220a890095878211244
:104c800020bb900638782112210385328285338338
:104c900085822185832278211225567a387b0679f0
:104ca00005024e1574f612230e74fe1222bf122551
:104cb0004274db12228f853282853383aa82ab83d2
:104cc00012178790063c7425126abc7426f0a374f0
:104cd00008f0a374041266181225567c257d007a0c
:104ce000387b067905125c1a12230c74021222a575
:104cf0007425800e126641122556125c1012230c88
:104d000074021222a585328285338312254a7402e9
:104d10001222a57f020223e674f012230e74fe1203
:104d200022bf12254274df12228f8a848b8585323e
:104d30008285338374201268d1a3ae82af8385321b
:104d400082853383858221858322782112255674ba
:104d5000031222f8ac82ad838e828f83e0f9126356
:104d6000a812154174021222a5124ecee8f0a3e952
:104d7000f08e828f83e0f8a3e0f990063e124ddebc
:104d8000900642124edb2407124ee990095c78250a
:104d90001220439009547825122095740878251222
:104da0002011782179251220a890096078211220fd
:104db000bb900638782112210374011222f88582f3
:104dc0002185832278211225567a387b06790b12a9
:104dd0005c1a12230c74021222a574218044e8f09c
:104de000a3e9f0a3eaf0a3eb124dec2212510ee07e
:104df0002278211220bb90063878211221038532b7
:104e00008285338385822185832278211225567af3
:104e1000387b067907125c1a12230c74021222a541
:104e200074401222a585328285338312254a74028a
:104e30001222a57f080223e674f012230e74fe12dc
:104e400022bf12254274df12228f8a848b8585321d
:104e5000828533837420f085822185832278211214
:104e6000255674031222f8ac82ad831263a8121582
:104e70004774021222a5124ece124dde9006401249
:104e80004edb2405124ee9900964782512204390e8
:104e9000095478251220957408782512201178215c
:104ea00079251220a890096878211220bb90063835
:104eb000782112210374011222f885822185832230
:104ec00078211225567a387b067909024dcf059252
:104ed000e0f8a3e0f9059290063c22124edf22f0a2
:104ee000f525f582ac827d0022124eed221255f995
:104ef000f526f527f5282274e812230e74fe1222f7
:104f0000bf12254274fb12228f8a298b2a752b002f
:104f1000752c008a828b8378211220f4e5c7c0e0cb
:104f200074041222f8d0e0f0900368e0f5c78a829a
:104f30008b83a3a3a3a3e0fa90f7e8e0f52de4f5b3
:104f40002ef52ff530740b782d1220118529828bc8
:104f5000838a25f526f527f5287825122043782d14
:104f60007925121df840030250c28529848b8505de
:104f700092a3a3a3a3a3059290096c7821122043c6
:104f8000eafee5215403fc7003025022740312224e
:104f9000f874fff074021222f874fff07401122208
:104fa000f81251078c82aa82740412594350057476
:104fb00004c39cfe8e257526007825122556ac84e8
:104fc000ad8574021222f8e5822afae5833400fbeb
:104fd000121d8774021222a57904853282853383db
:104fe000ac82ad838521258522268523278524282b
:104ff00074027825121ff8aa25ab2612141b8e25e1
:10500000e5842525f584e5853400f58585298285a7
:105010002a83a3a3a3a3e0c39efe90095078211284
:105020002043eec394044032eef9ac84ad85852173
:105030002585222685232785242874027825121f9a
:10504000f8aa25ab2612141b8e25e52554fcf8e59d
:105050008428f584e5853400f58574035efc60687a
:1050600074031222f874fff074021222f874fff035
:1050700074011222f81251078c257526007825122a
:105080002556ac84ad8574021222f8aa82ab831235
:105090001d8774021222a5853282853383ac82adce
:1050a000838e25e4f527f5287821792512203074a0
:1050b000027821121ff8aa21ab227404f912141be2
:1050c0008006752b80752c0174041222f8e0f5c758
:1050d00090063ce52bf0a3e52c1262a8740712663b
:1050e00041122556125c1012230c74021222a57470
:1050f000051222a585328285338312254a74021255
:1051000022a57f100223e674ff12510ef022f085d3
:1051100032828533832274e812230e74fe1222bf7a
:1051200012254274c012228f8a828b8385828485e5
:1051300083850592a3a3a3a3e0fee5c7ff900368c0
:10514000e0f5c790f7e8e0f525e4f526f527f52822
:10515000740b7825122011eec3944140027e400565
:105160009278291220f478257929121df84003023b
:10517000524c852921852a22852b23852c248e2d8e
:10518000e4f52ef52ff5307821792d122030782195
:105190007925121df85005e529f404fe90096c7874
:1051a00029122043852921852a22852b23852c2419
:1051b000740f7821121ff8e521f5238523c7ac2948
:1051c000e52a4480fd8e82858225752600ec252502
:1051d000f521ed3400f522c3e5259521e495225013
:1051e00010782512255674021222f8aa82ab838009
:1051f00051e525c39521f525e49522f5267825125c
:10520000255674021222f8aa82ab83121d877402fb
:105210001222a574012523f5c778211225567c009a
:105220007d80c3e49521fae49522fb8e217402125d
:1052300022f8e5822521f8e5833400f9e82afae925
:105240003bfb121d8774021222a580027e008fc7cd
:105250001252a71255f5f526f52790095078251218
:10526000204374087825122011782179251220a86e
:1052700090097078211220bb900638782112210302
:105280008532828533838582218583227821122588
:10529000567a387b067905125c1a12230c740212b6
:1052a00022a574400250f1ee90063c124edf24011c
:1052b0002274f012230e74fe1222bf12254274c013
:1052c00012228f8a828b837521007522007800e07c
:1052d000fec39406501f853284853385ac84ad852a
:1052e000a3e0fb7a027900ee1253de125c1f122358
:1052f0000ce9f88006752180752201126292f0e8af
:1053000012532212204390095478251220957408d4
:105310007825122011782179251220a89009780289
:105320004df1a3f0f525f582ac827d002403124ee9
:10533000ed90097478252274f512230e74fe122262
:10534000bf122542eafeebff7523008e828f83a3f6
:10535000e0fb74ff6b601c7c007d007a0479008e9a
:10536000828f83e01260af125c1f12230ce970037e
:105370007523018e828f83a3a3e0fb74ff6b6025ee
:105380007c007d007a0379008e828f83e01253dee9
:10539000125c1f12230ce97004d2f08002c2f0a24a
:1053a000f0e4334223e523a2e050067880790180bf
:1053b00004780079001253f1740e126641122556da
:1053c000125c1012230c74021222a58532828533de
:1053d0008312254a74021222a57f030223e6c333f7
:1053e000fee433ff74a42ef58474093ff58505921d
:1053f0002290063ce8f0a3e9126af5e4f0a32274d7
:10540000ec12230e74fe1222bf12254274c0122227
:105410008f8a848b85858482858583a3a3a3a3e05b
:10542000f8c39440500488218003752140e5c7f5f6
:105430002285848285858378251220f4740f78254f
:10544000121ff8e525f5c7852182ae828e237524cb
:10545000007823122556858482858583782512203d
:10546000f4ac25e5264480fd74021222f8aa82ab32
:1054700083121d8774021222a58522c78584828526
:10548000858312211290063c12211eee900640f0f8
:105490002405e43400f526e4c526f525e4f527f5d2
:1054a00028e0f529e4f52af52bf52c9009647829f4
:1054b00012204390095478291220957408782912f3
:1054c0002011782579291220a890097c78251220ae
:1054d000bb90063878251221038532828533838577
:1054e00082238583247823122556eefc7d007a38aa
:1054f0007b067909125c1a12230c74021222a5741d
:10550000401222a585328285338312254a74021205
:1055100022a57f0c0223e674f012230e74fe1222e1
:10552000bf12254274c012228f8a848b85794085f0
:105530003282853383ac82ad83126d5512181de91a
:10554000f874ff6870067a807b0180047a007b0023
:1055500090063ceaf0a3ebf074ff6870047e0080d4
:105560000ce8c394405004e8fe80027e40ee1253e3
:1055700022122043740878251220117821792512ef
:1055800020a8900980024df174ec12230e74fe12d3
:1055900022bf122542e9fe8c258d2690063ceaf0ba
:1055a000a3ebf0eea3f0f529f582ac827d00240395
:1055b0001255f5f52af52bf52c900974782912204f
:1055c0004374087829122011782179291220a89093
:1055d000098478211220bb900638782112210378a3
:1055e000251225567a387b067907125c1a12230c8d
:1055f00074020255011255f922e43400f522e4c583
:1056000022f521e4f523f5242274f212230e74fe10
:105610001222bf12254274fc12228f8922ea1460e2
:10562000061460430256dc900607e024026005146d
:105630006009800e90063c7484800c90063c748a4d
:10564000800590063c74851274781260f974061215
:1056500056f4122556125c1012230c74021222a565
:10566000900607e4f0807575210085222374ff25dc
:1056700023f522046066853282853383aa82ab8358
:10568000a921121961e9604be52190063c124de811
:1056900090063df074011222f8e0540190063ef0ad
:1056a00074031222f8e090063f1260c77480f0a3e2
:1056b0007404f0a304f0a3141256f41225567c00cf
:1056c0007d007a387b067908125c1a12230c74026a
:1056d0001222a50521e521c39408408e74041222ec
:1056e000a585328285338312254a74021222a57f52
:1056f000060223e6f0e4f525f52678252274f21259
:10570000230e74fe1222bf1225428922ebfeea60ac
:105710000d24fb60291470030258f90259159006f4
:1057200007e0fa74401259434003025857e0f874f6
:1057300040c398f52402585990060774fef0ee70a5
:1057400003025915900607e0a2e75027eec39441e3
:1057500040047f408002eeff7cc77d05effb1259bd
:105760001a125c1f12230ce9cec39efe700302596d
:105770001580d9c39404504de070160592900988a5
:105780001225697b017a0079081219af740412227c
:10579000a5900607e0f87404c39812594e500ae029
:1057a000f87404c398f52180028e21125937ab2179
:1057b00012591a125c1f12230ce9f8cec39efe90f8
:1057c0000607e028f0e0c39404500302573ee0646b
:1057d0000470189005c7e06003025738a3e0c39433
:1057e0003d400890060774ff02573d900607e0f819
:1057f0009005c8e02404c398f8c39e500488248010
:10580000028e24e8601e900607125937ab24125905
:105810001a125c1f12230ce9f8e524687006900642
:1058200007e028f0e524cec39efe900607e0fa903c
:1058300005c8e02404f8e43400f9e86a7001e9607e
:105840000302573e900607e0f97ac77b05121abd9e
:10585000900607e402573d8e24e524c39e500302c0
:1058600058f5852425752600782512255674c72af3
:10587000fa74053400fb121d8774021222a59006eb
:1058800007e02524f0e0c394045003025915900565
:10589000c8e0fc900607e0faec2404f8e43400f9d0
:1058a000ea98e499406f74042cf524f97ac77b05d3
:1058b000121abda824900607e0c398f07c00900659
:1058c00007e0f8ecc39850bd8c82a882852425e8b7
:1058d0002525fae43400fb74c72af58274053bf5ec
:1058e00083e0c0e074c728f58274053400f583d0e6
:1058f000e0f00c80c97900801ee5c7f525900368ab
:10590000e0f5c790ff25e0f974ff6960057a0012a1
:105910001ba78525c779010256e17a027900e522a5
:10592000c333f525e433f52674a42525f5847409dd
:105930003526f585059222e0f874c728fc740534f5
:1059400000fd22c39a12594ea2d265d03322f89597
:10595000e0f98e25c3e89525e994002274f6122318
:105960000e74fe1222bf1225428a828b837a007b3c
:1059700000e0f8c3940340057a800b804e85828452
:105980008583850592a3a3e870150592a3e0f58fa2
:105990000592e0600553f7df803143f720802c74d7
:1059a000016870150592a3e0f5f60592e0600553d5
:1059b000f7bf801743f7408012e060047800800250
:1059c00078800592a3e0541f48f5f71271d474054e
:1059d000024cf474f012230e74fe1222bf12254200
:1059e00074e012228f8a848b85858482858583a3c7
:1059f000a3e0f8c394205004e8fe80027e20eefc71
:105a0000853282853383aa82ab830592e0f9121b2b
:105a1000d7e9f5250592a3e06003121bc51271b505
:105a2000e4f0a3f0e525a3f01253261220437408f6
:105a30007825122011782179251220a890098c78d8
:105a4000211220bb900638782112210385328285ed
:105a5000338385822185832278211225567a387beb
:105a6000067907125c1a12230c74021222a5742004
:105a7000024e2274f512230e74fe1222bf1225422a
:105a80008a218b228a828b83a3a3a3a3a3ac82ad9a
:105a9000838a828b83a3a3a3a38a848b850592a385
:105aa000a3a3a884a9858a848b85a3a3aa84ab8594
:105ab000852184852285a3ae84af858521848522b6
:105ac00085e0701475864275c402125af1f5c58cd2
:105ad000828d83e0f5c2801275f84275fb02125a7e
:105ae000f1f5fc8c828d83e0f5fa1271bc0402534f
:105af000ba0592e0541ff52188828983e0c43354ab
:105b0000e0f88a828b83e0c4333354c0f98e828fed
:105b100083e0a2e0e4331313494845212274f012d4
:105b2000230e74fe1222bf1225428a848b8585843f
:105b300082858583a3aa82ab83e0c39441402390ee
:105b4000063c7482f0a374011260d7a3e41260c70c
:105b5000f0a3740412662a7409f0e4f521f5220218
:105b60005bf37c00800c8df9a2f840fce5f905920e
:105b7000f00c8a828b83e0f8ecc39850318c82a8b9
:105b800082e58428f582e5853400f583a3a3e0fd52
:105b9000748728f874053400f9888289830592e0b7
:105ba00070c48dc1e586a2e040fae5c180c09006d0
:105bb0003ce4f0a31260d78a828b83e0f52590063f
:105bc0003ff02404124ee990099078251220437486
:105bd000087825122011782179251220a89009949f
:105be00078211220bb900638782112210375218775
:105bf000752205782112255690063fe0fc7d007a3b
:105c0000387b067908125c1a12230c7402024e22a9
:105c10007c007d007a387b067906059290064ce080
:105c2000f582a3e0f58305922274f612230e74fe2a
:105c30001222bf1225428a828b837c007d008582de
:105c4000848583850592a3a3a3a884a985858284de
:105c5000858385a30592e014600a24fe60451460e4
:105c600067025ced0592e0f521c39405507f125d5b
:105c700002c0e074a01268c074623400f583d0e002
:105c8000f0888289831263ae0592e033f8e433f939
:105c900074a628f582746239f583ea0592f0a3ebc5
:105ca000f0804d0592e0f521c394025040125cfb58
:105cb000700b8acc88828983e0f5cd80338ace88c8
:105cc000828983e0f5cf80280592e0f521c3940214
:105cd000501b125cfb700b8aec88828983e0f5ed27
:105ce000800e8aee88828983e0f5ef80037c800d48
:105cf0001271ad1271db740d024cf4125d02fae503
:105d000021220592a3a3e0540733333354f844040b
:105d10002274f612230e74fe1222bf12254274e57d
:105d200012228fe9feeaffeec3941240030260aa3a
:105d30008e21745b1268c0744b126950500302606c
:105d4000aa8c848d850592a3a3a3a3ee05921225a8
:105d5000840011aa60795d875da85dfc5d3c5e7082
:105d60005eca5e055f0f5f575f985fc15fec5ff7cc
:105d70005f01600b60276071600592e0f91219fd08
:105d80007901741b024d021260cc04126641122587
:105d9000567c007d007a387b067904125c1a122347
:105da0000c74021222a580d879067cea7dff741556
:105db0001222f8aa82ab831213eb7521067522001a
:105dc000782112255674171222f8ac82ad837a3ce2
:105dd0007b06121d8774021222a5900638e4f0a3f8
:105de00074061260f97402f0e4f521782112255648
:105df0007c007d007a387b06790a809f85848285c5
:105e000085830592a3a3e0c0e00592e0f584a3e0ba
:105e1000f585d0e00592f0059290063ce4f0126022
:105e2000c6126608e4f0a374031266411225567c7c
:105e3000007d007a387b067906025d9b8584828529
:105e40008583e0f8a3e0f98884898590063ce8f032
:105e5000a3e91260d79006381260f074041266410c
:105e60001225567c007d007a387b067907025d9bff
:105e700074011222f8aa82ab8312179374011222c2
:105e8000f8e090063cf074021222f8e090063df033
:105e900074031222f8e090063ef074041222f8e037
:105ea00090063ff01217c9e99006401260c7e4124d
:105eb0006adae4f0a374051266411225567c007d6f
:105ec000007a387b067909025d9b12137fe9126a1a
:105ed000c812663c1225567c007d007a387b067914
:105ee00005125c1a12230c74021222a512137fe908
:105ef000f8e521c3984003025d807a00a921121bb6
:105f000077052180e7aa84ab85121a3f025d80796c
:105f1000017ce77dff853282853383aa82ab8312c1
:105f200013eb90063c74011260eef0a3f0a3746ec4
:105f30001260ee04124de8900647126abc740c120f
:105f400060f974081266411225567c007d007a388b
:105f50007b067910025d9b858482858583e0f8c38a
:105f600094065028e5822402fce5833400fda3e07a
:105f7000fb7a017900e81260af125c1f12230ce972
:105f8000600678007900800878878002788079013f
:105f90001253f17409025e29aa84ab858a828b832d
:105fa000a3a3a3a3a3a3e0f912163de990063c60c6
:105fb000051274868003e4f0a31253f8740a025e9b
:105fc00029858482858583aa82ab83a3a3a3a3a307
:105fd000a3e0f9121643e990063c6005127486802e
:105fe00003e4f0a31253f8740b025e29121649124f
:105ff00060cc740c025d8baa84ab85121a33025def
:1060000080aa84ab85121a39025d808584828585d9
:1060100083e0f9a3ac82ad837a777b05121a09126b
:1060200060cc740f025d8b1260ff1222f8aa82ab63
:1060300083121a0974051222f88582218583227839
:106040002112255674071222f8ac82ad837a777b31
:10605000051212cb74021222a51260e07410f078bf
:10606000211225567c107d007a387b067905025d69
